S01D0000436F636B7461696C4D6978657252656365697665722E73726563A3
S11300000C9435000C945D000C945D000C945D0020
S11300100C945D000C945D000C945D000C945D00E8
S11300200C945D000C945D000C945D000C945D00D8
S11300300C945D000C945D000C945D000C945D00C8
S11300400C94E9020C945D000C9420020C9452026E
S11300500C945D000C945D000C945D000C945D00A8
S11300600C945D000C945D00820211241FBECFEF3E
S1130070D8E0DEBFCDBF11E0A0E0B1E0E0E3F7E0FF
S113008002C005900D92A631B107D9F721E0A6E18F
S1130090B1E001C01D92AE3BB207E1F710E0C5E349
S11300A0D0E004C02197FE010E949003C433D1071D
S11300B0C9F70E94B0020C9496030C9400008FEFD1
S11300C08AB984B98CEF8BB98FE385B926E040E80F
S11300D055E260E070E088E191E00E94BB018FEF9F
S11300E09FEF909317018093160108958630910530
S11300F0CCF445B121E030E0672B49F4B90102C0EA
S1130100660F771F8A95E2F7CB01842B09C0B901EA
S113011002C0660F771F8A95E2F7CB01809584238E
S113012085B908958A309105CCF008974BB121E048
S113013030E0672B49F4B90102C0660F771F8A9536
S1130140E2F7CB01842B09C0B90102C0660F771F07
S11301508A95E2F7CB01809584238BB9089588E1D1
S113016091E00E94E600181619067CF580910201C0
S113017090910301019649F488E191E00E94000105
S1130180909303018093020108C088E191E00E94EA
S1130190000190930101809300016091000170912E
S11301A001016F3F8FEF780781F0809102019091F8
S11301B003010E9476008FEF9FEF909303018093D9
S11301C0020190930101809300010895FC01918D37
S11301D0228D892F90E0805C9F4F821B91098F7341
S11301E099270895FC01918D828D981731F0828DA5
S11301F0E80FF11D858D90E008958FEF9FEF08952E
S1130200FC01918D828D981761F0828DDF01A80F1A
S1130210B11D5D968C91928D9F5F9F73928F90E03C
S113022008958FEF9FEF0895FC01538D448D252F82
S113023030E0842F90E0821B930B541710F0CF967C
S113024008950197089588E792E0892B49F080E0AA
S113025090E0892B29F00E94780281110C9400000F
S11302600895FC01848DDF01A80FB11DA35ABF4F6F
S11302702C91848D90E001968F739927848FA689A1
S1130280B7892C93A089B1898C9180648C93938DC8
S1130290848D981306C00288F389E02D80818F7DB8
S11302A080830895EF92FF920F931F93CF93DF9370
S11302B0EC0181E0888F9B8D8C8D981305C0E889B3
S11302C0F989808185FD24C0F62E0B8D10E00F5F27
S11302D01F4F0F731127E02E8C8DE8120CC00FB640
S11302E007FCFACFE889F989808185FFF5CFCE0133
S11302F00E943101F1CF8B8DFE01E80FF11DE35A0D
S1130300FF4FF0820B8FEA89FB898081806207C0EE
S1130310EE89FF896083E889F9898081806480831C
S113032081E090E0DF91CF911F910F91FF90EF90CA
S11303300895CF93DF93EC01888D8823C9F0EA896F
S1130340FB89808185FD05C0A889B9898C9186FDCA
S11303500FC00FB607FCF5CF808185FFF2CFA889C7
S1130360B9898C9185FFEDCFCE010E943101E7CF91
S1130370DF91CF910895CF92DF92EF92FF921F9376
S1130380CF93DF93EC016A017B01122FE889F9898D
S113039082E080834115514E61057105B1F060E042
S11303A079E08DE390E0A70196010E946E03DA01E3
S11303B0C9010197A109B109B695A79597958795A4
S11303C09C01211580E13807A8F0E889F989108299
S11303D060E874E88EE190E0A70196010E946E0344
S11303E0DA01C9010197A109B109B695A7959795B5
S11303F087959C01EC85FD853083EE85FF85208300
S1130400188EEC89FD891083EA89FB8980818061DB
S11304108083EA89FB89808188608083EA89FB89FB
S1130420808180688083EA89FB8980818F7D8083D5
S1130430DF91CF911F91FF90EF90DF90CF900895BF
S11304401F920F920FB60F9211242F938F939F93A5
S1130450EF93FF93E0912801F09129018081E091CD
S11304602E01F0912F0182FD12C090818091310103
S11304708F5F8F7320913201821751F0E091310127
S1130480F0E0E85EFE4F958F8093310101C08081DA
S1130490FF91EF919F918F912F910F900FBE0F902D
S11304A01F9018951F920F920FB60F9211242F933D
S11304B03F934F935F936F937F938F939F93AF93E8
S11304C0BF93EF93FF9388E191E00E943101FF9184
S11304D0EF91BF91AF919F918F917F916F915F91B8
S11304E04F913F912F910F900FBE0F901F90189531
S11304F088E191E00E94E60021E0892B09F420E0E4
S1130500822F0895E8E1F1E01382128288EE93E0ED
S1130510A0E0B0E084839583A683B78388E091E06C
S11305209183808385EC90E09587848784EC90E0C8
S11305309787868780EC90E0918B808B81EC90E0AC
S1130540938B828B82EC90E0958B848B86EC90E08D
S1130550978B868B118E128E138E148E08950895A8
S11305600E9433030E94AF020E945F00C3E2D1E005
S11305700E94AF002097E1F30E942301F9CFCF92AC
S1130580DF92EF92FF920F931F93CF93DF936C014F
S11305907A018B01C0E0D0E0CE15DF0581F0D801EF
S11305A06D918D01D601ED91FC910190F081E02DCA
S11305B0C6010995892B11F02196EECF7E01C70162
S11305C0DF91CF911F910F91FF90EF90DF90CF902B
S11305D008951F920F920FB60F9211242F933F93F9
S11305E08F939F93AF93BF938091B6019091B7017E
S11305F0A091B801B091B9013091B50123E0230F66
S11306002D3720F40196A11DB11D05C026E8230F46
S11306100296A11DB11D2093B5018093B60190935C
S1130620B701A093B801B093B9018091BA01909138
S1130630BB01A091BC01B091BD010196A11DB11DEA
S11306408093BA019093BB01A093BC01B093BD0108
S1130650BF91AF919F918F913F912F910F900FBEBA
S11306600F901F901895789484B5826084BD84B5EA
S1130670816084BD85B5826085BD85B5816085BD99
S1130680EEE6F0E0808181608083E1E8F0E01082B2
S1130690808182608083808181608083E0E8F0E0F3
S11306A0808181608083E1EBF0E0808184608083DD
S11306B0E0EBF0E0808181608083EAE7F0E0808114
S11306C08460808380818260808380818160808374
S11306D08081806880831092C1000895A1E21A2E5F
S11306E0AA1BBB1BFD010DC0AA1FBB1FEE1FFF1FD2
S11306F0A217B307E407F50720F0A21BB30BE40B22
S1130700F50B661F771F881F991F1A9469F7609568
S11307107095809590959B01AC01BD01CF01089522
S1130720EE0FFF1F0590F491E02D0994F894FFCF8C
S1130730FFFFFFFF000000005201BF0214019901F6
S1090740E6000001F200D6
S9030000FC
